:020000040800F2
:1000000000280020E1140008E5130008EB130008A5
:10001000F1130008F7130008FD13000800000000AA
:1000200000000000000000000000000003140008B1
:100030000F140008000000001B140008271400081B
:10004000291500083314000829150008291500088F
:1000500029150008291500083F1400084D14000850
:100060005B14000829150008291500082915000847
:100070002915000829150008291500082915000868
:100080002915000829150008291500082915000858
:100090002915000829150008291500082915000848
:1000A0002915000829150008291500082915000838
:1000B000291500082915000800000000291500086E
:1000C00029150008000000000000000029150008A4
:1000D0000000000029150008291500080000000094
:1000E000291500082915000829150008000000003E
:1000F0000000000000000000000000000000000000
:0C01000000000000000000005FF808F1A3
:1001100010B5054C237833B9044B13B10448AFF341
:1001200000800123237010BD70000020000000003B
:100130007C3D000808B5034B1BB103490348AFF3EE
:10014000008008BD00000000740000207C3D000815
:1001500010F8012B11F8013B012A28BF9A42F7D071
:10016000D01A704770B54FF0FF0C4CF4E06C1CEAED
:1001700011541DBF1CEA135594EA0C0F95EA0C0F9D
:1001800000F0DEF82C4481EA030621EA4C5123EA10
:100190004C5350EA013518BF52EA033541F480113F
:1001A00043F4801338D0A0FB02CE4FF00005E1FBF2
:1001B00002E506F00042E0FB03E54FF00006E1FB3C
:1001C00003569CF0000F18BF4EF0010EA4F1FF047F
:1001D000B6F5007F64F5407404D25FEA4E0E6D41BF
:1001E00046EB060642EAC62141EA55514FEAC520D0
:1001F00040EA5E504FEACE2EB4F1FD0C88BFBCF54C
:10020000E06F1ED8BEF1004F08BF5FEA500E50F1FC
:10021000000041EB045170BD06F0004646EA0101C2
:1002200040EA020081EA0301B4EB5C04C2BFD4EBF4
:100230000C0541EA045170BD41F480114FF0000EED
:10024000013C00F3AB8014F1360FDEBF002001F05B
:10025000004170BDC4F10004203C35DA0C341BDCD5
:1002600004F11404C4F1200500FA05F320FA04F0A7
:1002700001FA05F240EA020001F0004221F00041DB
:1002800010EBD37021FA04F642EB06015EEA430E4E
:1002900008BF20EAD37070BDC4F10C04C4F120057E
:1002A00000FA04F320FA05F001FA04F240EA020031
:1002B00001F0004110EBD37041F100015EEA430E02
:1002C00008BF20EAD37070BDC4F1200500FA05F222
:1002D0004EEA020E20FA04F301FA05F243EA0203A1
:1002E00021FA04F001F0004121FA04F220EA0200B0
:1002F00000EBD3705EEA430E08BF20EAD37070BDF6
:1003000094F0000F0FD101F00046400041EB0101D5
:1003100011F4801F08BF013CF7D041EA060195F0B7
:10032000000F18BF704703F00046520043EB030371
:1003300013F4801F08BF013DF7D043EA060370475E
:1003400094EA0C0F0CEA135518BF95EA0C0F0CD069
:1003500050EA410618BF52EA4306D1D181EA0301AF
:1003600001F000414FF0000070BD50EA410606BFA9
:100370001046194652EA430619D094EA0C0F02D1EE
:1003800050EA013613D195EA0C0F05D152EA033633
:100390001CBF104619460AD181EA030101F0004151
:1003A00041F0FE4141F470014FF0000070BD41F09A
:1003B000FE4141F4780170BD81F0004102E000BFD0
:1003C00083F0004330B54FEA41044FEA430594EA15
:1003D000050F08BF90EA020F1FBF54EA000C55EA50
:1003E000020C7FEA645C7FEA655C00F0E2804FEA21
:1003F0005454D4EB5555B8BF6D420CDD2C4480EA03
:10040000020281EA030382EA000083EA010180EA32
:10041000020281EA0303362D88BF30BD11F0004F80
:100420004FEA01314FF4801C4CEA113102D04042B6
:1004300061EB410113F0004F4FEA03334CEA1333F1
:1004400002D0524263EB430394EA050F00F0A78009
:10045000A4F10104D5F1200E0DDB02FA0EFC22FA04
:1004600005F2801841F1000103FA0EF2801843FAF8
:1004700005F359410EE0A5F120050EF1200E012AE9
:1004800003FA0EFC28BF4CF0020C43FA05F3C01827
:1004900051EBE37101F0004507D54FF0000EDCF1A0
:1004A000000C7EEB00006EEB0101B1F5801F1BD349
:1004B000B1F5001F0CD349085FEA30004FEA3C0C4D
:1004C00004F101044FEA445212F5800F80F09A8043
:1004D000BCF1004F08BF5FEA500C50F1000041EB47
:1004E000045141EA050130BD5FEA4C0C404141EB4B
:1004F0000101013C28BFB1F5801FE9D291F0000F46
:1005000004BF01460020B1FA81F308BF2033A3F1F4
:100510000B03B3F120020CDA0C3208DD02F1140CEB
:10052000C2F10C0201FA0CF021FA02F10CE002F126
:100530001402D8BFC2F1200C01FA02F120FA0CFC1F
:10054000DCBF41EA0C019040E41AA2BF01EB045168
:10055000294330BD6FEA04041F3C1CDA0C340EDC66
:1005600004F11404C4F1200220FA04F001FA02F3A9
:1005700040EA030021FA04F345EA030130BDC4F167
:100580000C04C4F1200220FA02F001FA04F340EA5C
:100590000300294630BD21FA04F0294630BD94F00D
:1005A000000F83F4801306BF81F480110134013DF4
:1005B0004EE77FEA645C18BF7FEA655C29D094EA65
:1005C000050F08BF90EA020F05D054EA000C04BFE3
:1005D0001946104630BD91EA030F1EBF00210020CE
:1005E00030BD5FEA545C05D14000494128BF41F06D
:1005F000004130BD14F580043CBF01F5801130BDD1
:1006000001F0004545F0FE4141F470014FF000005B
:1006100030BD7FEA645C1ABF194610467FEA655C0C
:100620001CBF0B46024650EA013406BF52EA0335AE
:1006300091EA030F41F4002130BD00BF90F0000F9C
:1006400004BF0021704730B54FF4806404F13204D8
:100650004FF000054FF0000150E700BF90F0000F91
:1006600004BF0021704730B54FF4806404F13204B8
:1006700010F0004548BF40424FF000013EE700BF88
:1006800042004FEAE2014FEA31014FEA02701FBF18
:1006900012F07F4393F07F4F81F06051704732F04A
:1006A0007F4208BF704793F07F4F04BF41F40021A1
:1006B000704730B54FF4607401F0004521F00041FF
:1006C0001CE700BF50EA010208BF704730B54FF089
:1006D00000050AE050EA010208BF704730B511F08A
:1006E000004502D5404261EB41014FF4806404F1C2
:1006F00032045FEA915C3FF4D8AE4FF003025FEA48
:10070000DC0C18BF03325FEADC0C18BF033202EBCB
:10071000DC02C2F1200300FA03FC20FA02F001FA25
:1007200003FE40EA0E0021FA02F11444BDE600BFC8
:100730004A0011D212F5001211D20DD56FF4787360
:10074000B3EB62520ED44FEAC12343F0004343EAB5
:10075000505323FA02F070474FF00000704750EA00
:10076000013002D14FF0FF3070474FF0000070476A
:1007700090B587B000AF554B3C1D0FCB84E80F0000
:1007800000237B6198E07B69032B5FD801A252F8BC
:1007900023F000BFA5070008CF070008F9070008ED
:1007A0002308000800220121494801F0E6F901224E
:1007B0000221474801F0E1F901220421444801F0F7
:1007C000DCF901220821424801F0D7F93EE001227C
:1007D00001213F4801F0D1F9002202213C4801F0FB
:1007E000CCF9012204213A4801F0C7F9012208217D
:1007F000374801F0C2F929E001220121344801F013
:10080000BCF901220221324801F0B7F9002204218B
:100810002F4801F0B2F9012208212D4801F0ADF96D
:1008200014E0012201212A4801F0A7F90122022146
:10083000274801F0A2F901220421254801F09DF981
:1008400000220821224801F098F900BF1021204819
:1008500001F07CF90346002B04D13A1D7B69134457
:100860001B782EE020211A4801F070F90346002B76
:1008700005D107F108027B6913441B7821E0402170
:10088000134801F063F90346002B05D107F10C0270
:100890007B6913441B7814E080210D4801F056F960
:1008A0000346002B05D107F110027B6913441B7826
:1008B00007E07B6901337B617B69032B7FF763AFC3
:1008C000002318461C37BD4690BD00BF943D00086C
:1008D0000008014080B500AF1E2000F089FE002214
:1008E0004FF400511C4801F048F901224FF48051A7
:1008F000194801F042F900224FF40061164801F056
:100900003CF900224FF48061134801F036F90022CF
:100910004FF48041104801F030F901224FF40041BA
:100920000D4801F02AF900224FF400410A4801F075
:1009300024F90021282000F061F800210C2000F0AB
:100940005DF80021062000F059F80021012000F098
:1009500055F800BF80BD00BF000C014080B582B0DB
:1009600000AF03460A46FB711346BB71BB791A46BA
:100970004FF48041204801F000F9FB79DB08DBB23D
:1009800003F00103DBB21A464FF480611A4801F00C
:10099000F4F8FB799B08DBB203F00103DBB21A46E3
:1009A0004FF40061144801F0E8F8FB795B08DBB212
:1009B00003F00103DBB21A464FF480510E4801F0F8
:1009C000DCF8FB7903F00103DBB21A464FF4005167
:1009D000094801F0D2F801224FF40041064801F025
:1009E000CCF800224FF40041034801F0C6F800BFE4
:1009F0000837BD4680BD00BF000C014080B582B005
:100A000000AF03460A46FB711346BB71FB791B0915
:100A1000DBB2BA7911461846FFF7A0FFFB7903F065
:100A20000F03DBB2BA7911461846FFF797FF00BFF4
:100A30000837BD4680BD80B582B000AF78603960B0
:100A40007B68002B03D07B68012B05D009E03B6855
:100A500043F080033B6004E03B6843F0C0033B602D
:100A600000BF3B68DBB200211846FFF7C7FF00BF9D
:100A70000837BD4680BD80B584B000AF786039606E
:100A80000023FB600DE07B6893F90030DBB20121AD
:100A90001846FFF7B3FF7B6801337B60FB680133C7
:100AA000FB60FA683B689A42EDDB00BF00BF10377D
:100AB000BD4680BD80B500AF00210120FFF79EFF3D
:100AC00000BF80BD80B58EB000AF00F02FFD00F0FC
:100AD00077F900F083FA00F057FA00F0DFF900F040
:100AE000AFF9FFF7F7FE06210120FFF7A4FF9D4BAA
:100AF0009D4A92E803001860043319709B4B1B68F1
:100B0000002B0CBF01230023DAB2994B1B68022B88
:100B1000D4BF01230023DBB21340DBB2002B00F073
:100B2000A680934B1B680133914A1360914B0022BE
:100B30001A600F219048FFF79EFF4FF4FA7000F003
:100B400057FDFFF7B7FF8DE0FFF712FE034687F86A
:100B5000373097F83730002B00F08180022187482A
:100B6000FFF789FF97F8373087F82C30002387F894
:100B70002D3007F12C031946814802F097FC7D4B7C
:100B80001B6801337B4A13607A4B1B68042B66D1C8
:100B9000FFF790FF7A497348FFF7DAFA38633B6B47
:100BA000002B33D109217748FFF765FF4FF496708A
:100BB00000F01EFDFFF77EFF07F1100300221A6010
:100BC0005A609A60DA6007233B616F4B7B610023B8
:100BD000BB6107F1100319466C4800F03BFE002290
:100BE0000021062000F0FFFD062000F018FE002284
:100BF0000021072000F0F7FD072000F010FE5C4BFD
:100C000000221A60594B01221A6028E005220021B7
:100C10005B4802F023FC07215D48FFF72CFF4FF4EF
:100C2000967000F0E5FCFFF745FF514B1A683B1D3D
:100C30005849184602F01AFC4D4B1B68032B0ED185
:100C400012215548FFF717FF4FF4967000F0D0FCC3
:100C5000FFF730FF012220214C4800F08EFFC82012
:100C600000F0C6FC434B1B68032B7FF76DAF4B4B6B
:100C70001B68002B43D014214948FFF7FCFE4FF4BA
:100C8000967000F0B5FCFFF715FF052200213548EE
:100C900002F0E4FB2CE0FFF76BFD0346FB70FB78F2
:100CA000002B22D0FB1C01211846FFF7E4FEFB7845
:100CB0003B7000237B703B4619462A4802F0F6FB46
:100CC000384B1B680133374A1360364B1B68042BC3
:100CD0000BD1FFF7EFFE12213348FFF7CCFE4FF4A4
:100CE000967000F085FCFFF7E5FEC82000F080FC60
:100CF0002C4B1B68032BCEDD284B00221A602B4B9C
:100D00001B68002B13D012212948FFF7B4FE4FF4C3
:100D1000967000F06DFC0421264801F073FD2D2033
:100D200000F0FAF9FFF7C6FE204B00221A60224BB2
:100D30001B68002B3FF4E2AE15212048FFF79BFE15
:100D40004FF4967000F054FCFFF7B4FE002220210F
:100D50000E4800F012FF064B00221A60164B0022CC
:100D60001A60CBE670010020A43D00088801002035
:100D70008401002098010020AC3D0008BC3D000823
:100D800078010020C03D000800001110000C014057
:100D9000CC3D0008D43D0008D83D00088C0100205F
:100DA000EC3D000894010020043E00089001002062
:100DB000183E0008E0000020800100202C3E0008C2
:100DC00080B590B000AF07F1180328220021184623
:100DD00002F044FB3B1D00221A605A609A60DA6000
:100DE0001A610223BB610123BB621023FB62022351
:100DF0007B630023BB630023FB6307F118031846E2
:100E000001F048F80346002B01D000F0BDF90F2394
:100E10007B600223BB600023FB6000233B61002357
:100E20007B613B1D0021184601F0B6FA0346002BFA
:100E300001D000F0A9F900BF4037BD4680BD0000D9
:100E400080B500AF124B134A1A60114B124A5A6018
:100E50000F4B00229A600E4B0022DA600C4B4FF4CD
:100E600080421A610A4B00225A61094B00229A61A2
:100E7000074B0022DA61064B00221A62044800F098
:100E8000ADFE0346002B01D000F07EF900BF80BD0F
:100E90008C00002000540040801A060080B58EB0FF
:100EA00000AF07F1280300221A605A609A60DA60E6
:100EB00007F1200300221A605A603B1D00221A60CD
:100EC0005A609A60DA601A615A619A612D4B4FF04C
:100ED00080421A602B4B9F225A602A4B00229A6054
:100EE000284B4FF47A72DA60264B00221A61254BA8
:100EF00000229A61234801F0DDFB0346002B01D05C
:100F000000F042F94FF48053BB6207F12803194601
:100F10001C4801F0D5FD0346002B01D000F034F948
:100F2000184801F016FC0346002B01D000F02CF904
:100F300000233B6200237B6207F12003194611481E
:100F400002F02CF90346002B01D000F01DF96023BC
:100F50007B600023BB600023FB6000237B613B1DA3
:100F600004221946074801F0E9FC0346002B01D092
:100F700000F00AF9034800F0A5F900BF3837BD4674
:100F800080BD00BFE000002080B500AF114B124AC9
:100F90001A60104B4FF4E1325A600E4B00229A60F7
:100FA0000C4B0022DA600B4B00221A61094B0C2219
:100FB0005A61084B00229A61064B0022DA6105480B
:100FC00002F044F90346002B01D000F0DDF800BF29
:100FD00080BD00BF280100200038014080B586B0E8
:100FE00000AF07F1080300221A605A609A60DA60C5
:100FF000324B9B69314A43F0040393612F4B9B6949
:1010000003F004037B607B682C4B9B692B4A43F005
:1010100008039361294B9B6903F008033B603B681D
:10102000002240F60F11264800F0A7FD00224FF6DF
:101030002041244800F0A1FD40F60F13BB600123BE
:10104000FB6000233B6102237B6107F10803194623
:101050001B4800F0FFFBF023BB600023FB60012373
:101060003B6107F108031946154800F0F3FB4FF602
:101070002043BB600123FB6000233B6102237B61B3
:1010800007F1080319460F4800F0E4FB0423BB6096
:101090000D4BFB6000233B6107F10803194609482B
:1010A00000F0D8FB00220021082000F09CFB082063
:1010B00000F0B5FB00BF1837BD4680BD00100240F0
:1010C00000080140000C01400000111080B483B002
:1010D00000AF0346FB80FB88042B0ED0042B10DCF2
:1010E000012B02D0022B04D00BE0084B01221A6026
:1010F00007E0074B01221A6003E0064B01221A6049
:1011000000BF00BF0C37BD4680BC70478C0100207B
:10111000900100208001002080B584B000AF78608D
:101120007B68B42B02DDB4237B6004E07B68002B7A
:1011300001DA00237B607868FFF790FA0EA3D3E909
:101140000023FFF70FF802460B46104619464FF0F2
:1011500000020B4BFFF736F902460B4610461946C4
:10116000FFF7E6FA0346FB60064B1B68FA689A63D2
:1011700000BF1037BD4680BD9A9999999999E13F72
:1011800000003940E000002080B400AF72B600BF1C
:10119000FEE7000080B582B000AF124B9B69114A98
:1011A00043F0010393610F4B9B6903F001037B60E4
:1011B0007B680C4BDB690B4A43F08053D361094BCE
:1011C000DB6903F080533B603B6800220021012073
:1011D00000F009FB012000F022FB00BF0837BD46EC
:1011E00080BD00BF0010024080B58AB000AF7860BB
:1011F00007F1140300221A605A609A60DA607B6873
:101200001B681E4A934234D11D4B9B691C4A43F014
:10121000080393611A4B9B6903F008033B613B6928
:101220004FF440737B611223BB610023FB610323F6
:101230003B6207F114031946124800F00BFB124BF6
:101240005B687B627B6A43F0E0637B627B6A43F0AE
:1012500002037B620C4A7B6A5360094BDB69084AD4
:1012600043F40013D361064BDB6903F40013FB6006
:10127000FB6800BF2837BD4680BD00BF005400405A
:1012800000100240000C01400000014080B485B015
:1012900000AF78607B681B68B3F1804F0BD1084BBF
:1012A000DB69074A43F00103D361054BDB6903F0B7
:1012B0000103FB60FB6800BF1437BD4680BC70476C
:1012C0000010024080B588B000AF786007F10C03D1
:1012D00000221A605A609A60DA607B681B68B3F17A
:1012E000804F29D1164B9B69154A43F0080393613F
:1012F000134B9B6903F00803BB60BB680823FB60CA
:1013000002233B610223BB6107F10C0319460D4820
:1013100000F0A0FA0C4B5B68FB61FB6923F440739F
:10132000FB61FB6943F0E063FB61FB6943F480739D
:10133000FB61054AFB69536000BF2037BD4680BD95
:1013400000100240000C01400000014080B588B050
:1013500000AF786007F1100300221A605A609A60AB
:10136000DA607B681B681C4A934231D11B4B9B6936
:101370001A4A43F480439361184B9B6903F48043FA
:10138000FB60FB68154B9B69144A43F004039361AF
:10139000124B9B6903F00403BB60BB684FF40073FE
:1013A0003B6102237B610323FB6107F110031946B4
:1013B0000B4800F04FFA4FF480633B6100237B61E0
:1013C0000023BB6107F110031946054800F042FAFB
:1013D00000BF2037BD4680BD0038014000100240EC
:1013E0000008014080B400AFFEE780B400AFFEE724
:1013F00080B400AFFEE780B400AFFEE780B400AF7A
:10140000FEE780B400AF00BFBD4680BC704780B42B
:1014100000AF00BFBD4680BC704780B400AF00BFC6
:10142000BD4680BC704780B500AF00F0C5F800BF76
:1014300080BD80B500AF00F015FD00BF80BD80B558
:1014400000AF012000F0B2FB00BF80BD80B500AF4F
:10145000022000F0ABFB00BF80BD80B500AF0420D0
:1014600000F0A4FB00BF80BD80B586B000AF7860FF
:10147000144A154BD31A7B617B693B61134B1B6884
:10148000002B02D1114B124A1A60104B1A687B686C
:1014900013443A699A4207D201F0B6FF03460C2280
:1014A0001A604FF0FF3309E0084B1B68FB60074BE5
:1014B0001A687B681344054A1360FB68184618379E
:1014C000BD4680BD00280020000400009C010020D3
:1014D000B801002080B400AF00BFBD4680BC70479B
:1014E000FFF7F8FF0B480C490C4A002302E0D458E0
:1014F000C4500433C4188C42F9D3094A094C002360
:1015000001E013600432A242FBD301F083FFFFF736
:10151000D9FA70470000002070000020AC3E00089F
:1015200070000020B4010020FEE7000080B500AF8D
:10153000084B1B68074A43F010031360032000F0B8
:1015400047F90F2000F008F8FFF724FE00231846A3
:1015500080BD00BF0020024080B582B000AF78603F
:10156000124B1A68124B1B7819464FF47A73B3FB6F
:10157000F1F3B2FBF3F3184600F05FF90346002BDA
:1015800001D001230EE07B680F2B0AD80022796876
:101590004FF0FF3000F027F9064A7B681360002304
:1015A00000E0012318460837BD4680BD000000203A
:1015B000080000200400002080B400AF054B1B7819
:1015C0001A46054B1B681344034A136000BFBD460F
:1015D00080BC704708000020A001002080B400AF4C
:1015E000024B1B681846BD4680BC7047A001002016
:1015F00080B584B000AF7860FFF7F0FFB8607B681B
:10160000FB60FB68B3F1FF3F05D00A4B1B781A461D
:10161000FB681344FB6000BFFFF7E0FF0246BB68B6
:10162000D31AFA689A42F7D800BF00BF1037BD46F8
:1016300080BD00BF0800002080B485B000AF786096
:101640007B6803F00703FB600C4BDB68BB60BA6888
:101650004FF6FF031340BB60FB681A02BB681343DD
:1016600043F0BF6343F40033BB60044ABB68D360FC
:1016700000BF1437BD4680BC704700BF00ED00E0DE
:1016800080B400AF044BDB681B0A03F00703184665
:10169000BD4680BC704700BF00ED00E080B483B061
:1016A00000AF0346FB7197F90730002B0BDBFB798A
:1016B00003F01F02064997F907305B09012000FA81
:1016C00002F241F8232000BF0C37BD4680BC7047B2
:1016D00000E100E080B483B000AF03463960FB71E5
:1016E00097F90730002B0ADB3B68DAB20C4997F90F
:1016F00007301201D2B20B4483F800230AE03B68A2
:10170000DAB20849FB7903F00F03043B1201D2B2AD
:101710000B441A7600BF0C37BD4680BC704700BF33
:1017200000E100E000ED00E080B489B000AFF860B7
:10173000B9607A60FB6803F00703FB61FB69C3F1E2
:101740000703042B28BF0423BB61FB690433062B6A
:1017500002D9FB69033B00E000237B614FF0FF32BD
:10176000BB6902FA03F3DA43BB681A407B699A400B
:101770004FF0FF317B6901FA03F3D9437B680B40DB
:10178000134318462437BD4680BC704780B582B0ED
:1017900000AF78607B68013BB3F1807F01D3012308
:1017A0000FE00A4A7B68013B53600F214FF0FF3086
:1017B000FFF790FF054B00229A60044B07221A6046
:1017C000002318460837BD4680BD00BF10E000E08A
:1017D00080B582B000AF78607868FFF72DFF00BF5A
:1017E0000837BD4680BD80B586B000AF0346B960FE
:1017F0007A60FB7300237B61FFF742FF78617A68B0
:10180000B9687869FFF790FF024697F90F301146E3
:101810001846FFF75FFF00BF1837BD4680BD80B593
:1018200082B000AF0346FB7197F907301846FFF707
:1018300035FF00BF0837BD4680BD80B582B000AF20
:1018400078607868FFF7A2FF034618460837BD4660
:1018500080BD000080B48BB000AF78603960002399
:101860007B6200233B6261E101227B6A02FA03F39F
:10187000FB613B681B68FA691340BB61BA69FB698D
:101880009A4240F050813B685B68974A93425ED031
:10189000954A934275D8954A934258D0934A9342B9
:1018A0006FD8934A934252D0914A934269D8914A51
:1018B00093424CD08F4A934263D88F4A934246D08A
:1018C0008D4A93425DD8122B2AD8122B59D801A2E7
:1018D00052F823F04F190008291900083B19000895
:1018E0007D1900088319000883190008831900086E
:1018F0008319000883190008831900088319000858
:101900008319000883190008831900088319000847
:1019100083190008831900083119000845190008C7
:10192000764A934213D02CE03B68DB683B6229E0A7
:101930003B68DB6804333B6224E03B68DB680833C8
:101940003B621FE03B68DB680C333B621AE03B689C
:101950009B68002B02D104233B6213E03B689B6829
:10196000012B05D108233B627B68FA691A6109E003
:1019700008233B627B68FA695A6103E000233B62FB
:1019800000E000BFBB69FF2B01D87B6801E07B68EA
:1019900004337B61BB69FF2B02D87B6A9B0002E0AA
:1019A0007B6A083B9B003B617B691A680F213B699E
:1019B00001FA03F3DB431A40396A3B6901FA03F386
:1019C0001A437B691A603B685B6803F08053002B05
:1019D00000F0A9804A4B9B69494A43F00103936197
:1019E000474B9B6903F00103BB60BB68454A7B6AB8
:1019F0009B08023352F82330FB607B6A03F0030339
:101A00009B000F2202FA03F3DB43FA681340FB60EA
:101A10007B683D4A93420DD07B683C4A934207D095
:101A20007B683B4A934201D1022304E0032302E096
:101A3000012300E000237A6A02F00302920093403F
:101A4000FA681343FB602F497B6A9B080233FA68EC
:101A500041F823203B685B6803F48013002B06D019
:101A60002C4B9A682B49BB6913438B6006E0294BCA
:101A70009A68BB69DB43274913408B603B685B680E
:101A800003F40013002B06D0224BDA682149BB690E
:101A90001343CB6006E01F4BDA68BB69DB431D498B
:101AA0001340CB603B685B6803F40033002B06D027
:101AB000184B5A681749BB6913434B6006E0154B36
:101AC0005A68BB69DB43134913404B603B685B6852
:101AD00003F48033002B1FD00E4B1A680D49BB69ED
:101AE00013430B601FE000BF0000321000003110F4
:101AF0000000221000002110000012100000111040
:101B0000001002400000014000080140000C0140AC
:101B100000100140000401400B4B1A68BB69DB4315
:101B2000094913400B607B6A01337B623B681A688A
:101B30007B6A22FA03F3002B7FF496AE00BF00BF4E
:101B40002C37BD4680BC70470004014080B485B08E
:101B500000AF78600B467B807B689A687B88134077
:101B6000002B02D00123FB7301E00023FB73FB7BFE
:101B700018461437BD4680BC704780B483B000AFB0
:101B800078600B467B8013467B707B78002B03D0FC
:101B90007A887B681A6103E07B881A047B681A6183
:101BA00000BF0C37BD4680BC7047000080B582B0D6
:101BB00000AF0346FB80084B5A69FB881340002B9B
:101BC00006D0054AFB885361FB881846FFF77EFA6A
:101BD00000BF0837BD4680BD0004014080B584B019
:101BE00000AF78607B68002B01D101232BE17B687B
:101BF00093F83D30DBB2002B06D17B68002283F8DE
:101C00003C207868FFF7F0FA7B68242283F83D20B7
:101C10007B681B681A687B681B6822F001021A60E7
:101C20007B681B681A687B681B6842F400421A6074
:101C30007B681B681A687B681B6822F400421A6084
:101C400000F0F2FCF8607B685B68814A934207D839
:101C5000FB68804A934294BF01230023DBB206E075
:101C6000FB687D4A934294BF01230023DBB2002B23
:101C700001D00123E7E0FB68784AA2FB03239B0C19
:101C8000BB607B681B685B6823F03F017B681B6857
:101C9000BA680A435A607B681B681B6A23F03F01DD
:101CA0007B685B686A4A934202D8BB68013309E0EB
:101CB000BB684FF4967202FB03F3694AA2FB03234D
:101CC0009B0901337A6812680B4313627B681B68B7
:101CD000DB6923F44F4222F0FF027B685B685C49BA
:101CE0008B4219D8FB68591E7B685B685B00B1FBAF
:101CF000F3F3591C40F6FC730B40002B0AD0FB6831
:101D0000591E7B685B685B00B1FBF3F30133C3F3DF
:101D10000B0351E004234FE07B689B68002B11D13B
:101D2000FB68581E7B6859680B465B000B44B0FB90
:101D3000F3F30133C3F30B03002B0CBF0123002388
:101D4000DBB212E0FB68581E7B6859680B469B00AB
:101D50000B4499000B44B0FBF3F30133C3F30B03C3
:101D6000002B0CBF01230023DBB2002B01D0012389
:101D700022E07B689B68002B0ED1FB68581E7B68B5
:101D800059680B465B000B44B0FBF3F30133C3F31C
:101D90000B0343F400430FE0FB68581E7B6859684F
:101DA0000B469B000B4499000B44B0FBF3F301334B
:101DB000C3F30B0343F44043796809681343CB61D1
:101DC0007B681B681B6823F0C0017B68DA697B684D
:101DD0001B6A1A437B681B680A431A607B681B688E
:101DE0009B6823F4034323F0FF037A6811697A6840
:101DF000D26811437A6812680B4393607B681B6852
:101E0000DB6823F0FF017B685A697B689B691A4392
:101E10007B681B680A43DA607B681B681A687B680A
:101E20001B6842F001021A607B6800221A647B681A
:101E3000202283F83D207B6800221A637B68002201
:101E400083F83E20002318461037BD4680BD00BFF2
:101E5000A08601007F841E00FF083D0083DE1B4337
:101E6000D34D621080B500AF064B5B6903F480333D
:101E7000002B05D000F008F8024B4FF480325A6175
:101E800000BF80BD0004014080B400AF00BFBD466C
:101E900080BC704780B586B000AF78607B68002B4F
:101EA00001D1012372E27B681B6803F00103002B60
:101EB00000F08780924B5B6803F00C03042B0CD07E
:101EC0008F4B5B6803F00C03082B12D18C4B5B68C3
:101ED00003F48033B3F5803F0BD1894B1B6803F4C7
:101EE0000033002B6CD07B685B68002B68D101232A
:101EF0004CE27B685B68B3F5803F06D1804B1B6882
:101F00007F4A43F4803313602EE07B685B68002BCC
:101F10000CD17B4B1B687A4A23F480331360784BD7
:101F20001B68774A23F4802313601DE07B685B689D
:101F3000B3F5A02F0CD1724B1B68714A43F4802378
:101F400013606F4B1B686E4A43F4803313600BE0E1
:101F50006B4B1B686A4A23F480331360684B1B6821
:101F6000674A23F4802313607B685B68002B13D0DF
:101F7000FFF734FB386108E0FFF730FB02463B69AE
:101F8000D31A642B01D9032300E25D4B1B6803F4D1
:101F90000033002BF0D014E0FFF720FB386108E09D
:101FA000FFF71CFB02463B69D31A642B01D90323BC
:101FB000ECE1534B1B6803F40033002BF0D100E03D
:101FC00000BF7B681B6803F00203002B63D04C4BFF
:101FD0005B6803F00C03002B0BD0494B5B6803F0EC
:101FE0000C03082B1CD1464B5B6803F48033002B99
:101FF00016D1434B1B6803F00203002B05D07B680E
:102000001B69012B01D00123C0E13D4B1B6823F06C
:10201000F8027B685B69DB00394913430B603AE0E7
:102020007B681B69002B20D0364B01221A60FFF71A
:10203000D5FA386108E0FFF7D1FA02463B69D31AB6
:10204000022B01D90323A1E12D4B1B6803F00203EE
:10205000002BF0D02A4B1B6823F0F8027B685B69E9
:10206000DB00274913430B6015E0264B00221A6062
:10207000FFF7B4FA386108E0FFF7B0FA02463B69AF
:10208000D31A022B01D9032380E11D4B1B6803F0F7
:102090000203002BF0D17B681B6803F00803002BC0
:1020A0003AD07B689B69002B19D0174B01221A602C
:1020B000FFF794FA386108E0FFF790FA02463B69AF
:1020C000D31A022B01D9032360E10D4B5B6A03F0A5
:1020D0000203002BF0D0012000F0CEFA1CE00A4BE6
:1020E00000221A60FFF77AFA38610FE0FFF776FAFC
:1020F00002463B69D31A022B08D9032346E100BFED
:10210000001002400000424280044242924B5B6A4F
:1021100003F00203002BE9D17B681B6803F0040382
:10212000002B00F0A6800023FB758B4BDB6903F0CE
:102130008053002B0DD1884BDB69874A43F08053D5
:10214000D361854BDB6903F08053BB60BB6801231F
:10215000FB75824B1B6803F48073002B18D17F4BF7
:102160001B687E4A43F480731360FFF737FA3861C7
:1021700008E0FFF733FA02463B69D31A642B01D912
:10218000032303E1754B1B6803F48073002BF0D02D
:102190007B68DB68012B06D16F4B1B6A6E4A43F0EC
:1021A000010313622DE07B68DB68002B0CD16A4BC6
:1021B0001B6A694A23F001031362674B1B6A664A74
:1021C00023F0040313621CE07B68DB68052B0CD151
:1021D000614B1B6A604A43F0040313625E4B1B6A47
:1021E0005D4A43F0010313620BE05B4B1B6A5A4AE2
:1021F00023F001031362584B1B6A574A23F0040370
:1022000013627B68DB68002B15D0FFF7E7F93861B4
:102210000AE0FFF7E3F902463B69D31A41F288323C
:10222000934201D90323B1E04B4B1B6A03F0020335
:10223000002BEED014E0FFF7D1F938610AE0FFF788
:10224000CDF902463B69D31A41F28832934201D953
:1022500003239BE0404B1B6A03F00203002BEED1EB
:10226000FB7D012B05D13C4BDB693B4A23F08053BE
:10227000D3617B68DB69002B00F08780364B5B689D
:1022800003F00C03082B61D07B68DB69022B46D17D
:10229000334B00221A60FFF7A1F9386108E0FFF71D
:1022A0009DF902463B69D31A022B01D903236DE045
:1022B000294B1B6803F00073002BF0D17B681B6A6D
:1022C000B3F5803F08D1244B5B6823F400327B6870
:1022D0009B68214913434B601F4B5B6823F47412C6
:1022E0007B68196A7B685B6A0B431B4913434B602D
:1022F0001B4B01221A60FFF771F9386108E0FFF704
:102300006DF902463B69D31A022B01D903233DE044
:10231000114B1B6803F00073002BF0D035E0104B1D
:1023200000221A60FFF75AF9386108E0FFF756F902
:1023300002463B69D31A022B01D9032326E0064B40
:102340001B6803F00073002BF0D11EE07B68DB6993
:10235000012B07D1012319E000100240007000405A
:10236000600042420B4B5B68FB60FB6803F4803209
:102370007B681B6A9A4206D1FB6803F470127B6883
:102380005B6A9A4201D0012300E000231846183707
:10239000BD4680BD0010024080B584B000AF7860BB
:1023A00039607B68002B01D10123D0E06A4B1B68A8
:1023B00003F007033A689A4210D9674B1B6823F071
:1023C000070265493B6813430B60634B1B6803F0CE
:1023D00007033A689A4201D00123B8E07B681B6882
:1023E00003F00203002B20D07B681B6803F004037A
:1023F000002B05D0594B5B68584A43F4E0635360A7
:102400007B681B6803F00803002B05D0534B5B6807
:10241000524A43F460535360504B5B6823F0F00220
:102420007B689B684D4913434B607B681B6803F0D6
:102430000103002B40D07B685B68012B07D1474B21
:102440001B6803F40033002B15D101237FE07B6868
:102450005B68022B07D1414B1B6803F00073002B14
:1024600009D1012373E03D4B1B6803F00203002BED
:1024700001D101236BE0394B5B6823F003027B68D9
:102480005B68364913434B60FFF7A8F8F8600AE031
:10249000FFF7A4F80246FB68D31A41F28832934250
:1024A00001D9032353E02D4B5B6803F00C027B68DA
:1024B0005B689B009A42EBD1274B1B6803F0070334
:1024C0003A689A4210D2244B1B6823F00702224933
:1024D0003B6813430B60204B1B6803F007033A680B
:1024E0009A4201D0012332E07B681B6803F00403A9
:1024F000002B08D0194B5B6823F4E0627B68DB6833
:10250000164913434B607B681B6803F00803002BDC
:1025100009D0124B5B6823F460527B681B69DB00B7
:102520000E4913434B6000F021F802460B4B5B68E9
:102530001B0903F00F030A49CB5C22FA03F3094A93
:102540001360094B1B681846FFF706F8002318466E
:102550001037BD4680BD00BF002002400010024081
:10256000443E0008000000200400002080B487B032
:1025700000AF0023FB600023BB6000237B610023CE
:102580007B6000233B611E4B5B68FB60FB6803F0D4
:102590000C03042B02D0082B03D027E0194B3B611E
:1025A00027E0FB689B0C03F00F03174AD35C7B60AA
:1025B000FB6803F48033002B10D0114B5B685B0C7D
:1025C00003F00103114AD35CBB607B680D4A03FB37
:1025D00002F2BB68B2FBF3F37B6104E07B680C4A58
:1025E00002FB03F37B617B693B6102E0054B3B61CE
:1025F00000BF3B6918461C37BD4680BC704700BF12
:102600000010024000127A005C3E00086C3E000898
:1026100000093D0080B400AF024B1B681846BD4660
:1026200080BC70470000002080B500AFFFF7F2FFCC
:102630000246054B5B681B0A03F007030349CB5CAA
:1026400022FA03F3184680BD00100240543E0008F1
:1026500080B500AFFFF7DEFF0246054B5B68DB0A83
:1026600003F007030349CB5C22FA03F3184680BD4D
:1026700000100240543E000880B485B000AF78607E
:102680000A4B1B680A4AA2FB03235B0A7A6802FB17
:1026900003F3FB6000BFFB685A1EFA60002BF9D100
:1026A00000BF00BF1437BD4680BC7047000000204B
:1026B000D34D621080B582B000AF78607B68002B8C
:1026C00001D1012341E07B6893F83D30DBB2002B60
:1026D00006D17B68002283F83C207868FEF7D6FD9F
:1026E0007B68022283F83D207B681A687B6804338C
:1026F0001946104600F0ACFA7B68012283F84620A8
:102700007B68012283F83E207B68012283F83F200A
:102710007B68012283F840207B68012283F84120F6
:102720007B68012283F842207B68012283F84320E2
:102730007B68012283F844207B68012283F84520CE
:102740007B68012283F83D20002318460837BD46E8
:1027500080BD80B582B000AF78607B68002B01D16E
:10276000012341E07B6893F83D30DBB2002B06D1BA
:102770007B68002283F83C20786800F039F87B6899
:10278000022283F83D207B681A687B68043319466F
:10279000104600F05DFA7B68012283F846207B68D2
:1027A000012283F83E207B68012283F83F207B686A
:1027B000012283F840207B68012283F841207B6856
:1027C000012283F842207B68012283F843207B6842
:1027D000012283F844207B68012283F845207B682E
:1027E000012283F83D20002318460837BD4680BDEE
:1027F00080B483B000AF786000BF0C37BD4680BCAA
:102800007047000080B584B000AF786039603B68E5
:10281000002B09D17B6893F83E30DBB2012B14BF4B
:1028200001230023DBB222E03B68042B09D17B6843
:1028300093F83F30DBB2012B14BF01230023DBB23E
:1028400015E03B68082B09D17B6893F84030DBB278
:10285000012B14BF01230023DBB208E07B6893F84F
:102860004130DBB2012B14BF01230023DBB2002B6C
:1028700001D0012359E03B68002B04D17B68022280
:1028800083F83E2013E03B68042B04D17B680222CE
:1028900083F83F200BE03B68082B04D17B680222C1
:1028A00083F8402003E07B68022283F841207B68A4
:1028B0001B6801223968184600F04CFC7B681B68D5
:1028C0001C4A934207D17B681B685A6C7B681B6863
:1028D00042F400425A647B681B68164A934209D04E
:1028E0007B681B68B3F1804F04D07B681B68124A79
:1028F000934211D17B681B689B6803F00703FB6060
:10290000FB68062B10D07B681B681A687B681B6805
:1029100042F001021A6007E07B681B681A687B6856
:102920001B6842F001021A60002318461037BD46AA
:1029300080BD00BF002C01400004004080B586B07F
:1029400000AFF860B9607A600023FB75FB6893F80C
:102950003C30012B01D10223AEE0FB68012283F859
:102960003C207B680C2B00F29F8001A252F823F0E0
:10297000A5290008A92A0008A92A0008A92A0008F0
:10298000E5290008A92A0008A92A0008A92A0008A0
:10299000272A0008A92A0008A92A0008A92A00084D
:1029A000672A0008FB681B68B968184600F0B4F98C
:1029B000FB681B689A69FB681B6842F008029A6111
:1029C000FB681B689A69FB681B6822F004029A6125
:1029D000FB681B689969BB681A69FB681B680A4336
:1029E0009A6164E0FB681B68B968184600F0FAF960
:1029F000FB681B689A69FB681B6842F400629A6175
:102A0000FB681B689A69FB681B6822F480629A6104
:102A1000FB681B689969BB681B691A02FB681B6825
:102A20000A439A6143E0FB681B68B968184600F0E6
:102A300043FAFB681B68DA69FB681B6842F008020E
:102A4000DA61FB681B68DA69FB681B6822F0040224
:102A5000DA61FB681B68D969BB681A69FB681B6887
:102A60000A43DA6123E0FB681B68B968184600F086
:102A70008DFAFB681B68DA69FB681B6842F4006228
:102A8000DA61FB681B68DA69FB681B6822F4806204
:102A9000DA61FB681B68D969BB681B691A02FB68AD
:102AA0001B680A43DA6102E00123FB7500BFFB6883
:102AB000002283F83C20FB7D18461837BD4680BDB8
:102AC00080B584B000AF786039600023FB737B6809
:102AD00093F83C30012B01D10223B4E07B68012242
:102AE00083F83C207B68022283F83D207B681B68CA
:102AF0009B68BB60BB6823F07703BB60BB6823F4B3
:102B00007F43BB607B681B68BA689A603B681B6840
:102B1000B3F5005F3ED0B3F5005F00F28780B3F5F8
:102B2000805F00F08680B3F5805F7FD8702B1AD06D
:102B3000702B7BD8602B50D0602B77D8502B3CD09B
:102B4000502B73D8402B58D0402B6FD8302B64D0EB
:102B5000302B6BD8202B60D0202B67D8002B5CD07B
:102B6000102B5AD062E07B6818683B6899683B6814
:102B70005A683B68DB6800F0CEFA7B681B689B688C
:102B8000BB60BB6843F07703BB607B681B68BA68B7
:102B90009A604FE07B6818683B6899683B685A68A0
:102BA0003B68DB6800F0B7FA7B681B689A687B6853
:102BB0001B6842F480429A603CE07B6818683B687E
:102BC00059683B68DB681A4600F02EFA7B681B6880
:102BD0005021184600F085FA2CE07B6818683B68A5
:102BE00059683B68DB681A4600F04CFA7B681B6842
:102BF0006021184600F075FA1CE07B6818683B6895
:102C000059683B68DB681A4600F00EFA7B681B685F
:102C10004021184600F065FA0CE07B681A683B68B2
:102C20001B681946104600F05CFA03E00123FB73B1
:102C300000E000BF7B68012283F83D207B68002212
:102C400083F83C20FB7B18461037BD4680BD000052
:102C500080B485B000AF786039607B681B68FB602A
:102C60007B682B4A934207D07B68B3F1804F03D037
:102C70007B68284A934208D1FB6823F07003FB600D
:102C80003B685B68FA681343FB607B68204A9342A9
:102C900007D07B68B3F1804F03D07B681D4A934215
:102CA00008D1FB6823F44073FB603B68DB68FA687B
:102CB0001343FB60FB6823F080023B685B691343AE
:102CC000FB607B68FA681A603B689A687B68DA6226
:102CD0003B681A687B689A627B680D4A934203D10D
:102CE0003B681A697B681A637B6801225A617B68BA
:102CF0001B6903F00103002B05D07B681B6923F0DF
:102D000001027B681A6100BF1437BD4680BC704762
:102D1000002C01400004004080B487B000AF786010
:102D200039607B681B6A7B617B681B6A23F0010248
:102D30007B681A627B685B683B617B689B69FB60B0
:102D4000FB6823F07003FB60FB6823F00303FB6068
:102D50003B681B68FA681343FB607B6923F002033E
:102D60007B613B689B687A6913437B617B681C4A83
:102D700093420CD17B6923F008037B613B68DB68DD
:102D80007A6913437B617B6923F004037B617B6871
:102D9000134A934211D13B6923F480733B613B6931
:102DA00023F400733B613B685B693A6913433B6101
:102DB0003B689B693A6913433B617B683A695A6097
:102DC0007B68FA689A613B685A687B685A637B68DB
:102DD0007A691A6200BF1C37BD4680BC704700BFCD
:102DE000002C014080B487B000AF786039607B6808
:102DF0001B6A7B617B681B6A23F010027B681A6286
:102E00007B685B683B617B689B69FB60FB6823F4C4
:102E1000E043FB60FB6823F44073FB603B681B6886
:102E20001B02FA681343FB607B6923F020037B617C
:102E30003B689B681B017A6913437B617B681D4A71
:102E400093420DD17B6923F080037B613B68DB6893
:102E50001B017A6913437B617B6923F040037B612B
:102E60007B68144A934213D13B6923F480633B612E
:102E70003B6923F400633B613B685B699B003A69F3
:102E800013433B613B689B699B003A6913433B6179
:102E90007B683A695A607B68FA689A613B685A684D
:102EA0007B689A637B687A691A6200BF1C37BD46EB
:102EB00080BC7047002C014080B487B000AF7860C0
:102EC00039607B681B6A7B617B681B6A23F48072B4
:102ED0007B681A627B685B683B617B68DB69FB60CF
:102EE000FB6823F07003FB60FB6823F00303FB60C7
:102EF0003B681B68FA681343FB607B6923F400732B
:102F00007B613B689B681B027A6913437B617B682A
:102F10001D4A93420DD17B6923F400637B613B68BA
:102F2000DB681B027A6913437B617B6923F480634E
:102F30007B617B68144A934213D13B6923F480532D
:102F40003B613B6923F400533B613B685B691B01B8
:102F50003A6913433B613B689B691B013A69134320
:102F60003B617B683A695A607B68FA68DA613B6862
:102F70005A687B68DA637B687A691A6200BF1C371B
:102F8000BD4680BC704700BF002C014080B487B0B4
:102F900000AF786039607B681B6A3B617B681B6AA5
:102FA00023F480527B681A627B685B687B617B6874
:102FB000DB69FB60FB6823F4E043FB60FB6823F400
:102FC0004073FB603B681B681B02FA681343FB609D
:102FD0003B6923F400533B613B689B681B033A69E0
:102FE00013433B617B680F4A934209D17B6923F409
:102FF00080437B613B685B699B017A6913437B611A
:103000007B687A695A607B68FA68DA613B685A685B
:103010007B681A647B683A691A6200BF1C37BD4638
:1030200080BC7047002C014080B487B000AFF860CE
:10303000B9607A60FB681B6A7B61FB681B6A23F0DE
:103040000102FB681A62FB689B693B613B6923F0E4
:10305000F0033B617B681B013A6913433B617B6969
:1030600023F00A037B617A69BB6813437B61FB68C9
:103070003A699A61FB687A691A6200BF1C37BD46DB
:1030800080BC704780B487B000AFF860B9607A60E8
:10309000FB681B6A7B61FB681B6A23F01002FB68FC
:1030A0001A62FB689B693B613B6923F470433B6197
:1030B0007B681B033A6913433B617B6923F0A003E0
:1030C0007B61BB681B017A6913437B61FB683A69CA
:1030D0009A61FB687A691A6200BF1C37BD4680BCE2
:1030E000704780B485B000AF786039607B689B68BA
:1030F000FB60FB6823F07003FB603A68FB681343D6
:1031000043F00703FB607B68FA689A6000BF1437DE
:10311000BD4680BC704780B487B000AFF860B9602E
:103120007A603B60FB689B687B617B6923F47F432B
:103130007B613B681A027B681A43BB6813437A6958
:1031400013437B61FB687A699A6000BF1C37BD46F8
:1031500080BC704780B487B000AFF860B9607A6017
:10316000BB6803F01F03012202FA03F37B61FB68D3
:103170001A6A7B69DB431A40FB681A62FB681A6AA9
:10318000BB6803F01F03796801FA03F31A43FB6875
:103190001A6200BF1C37BD4680BC704780B485B042
:1031A00000AF786039607B6893F83C30012B01D127
:1031B000022341E07B68012283F83C207B680222E5
:1031C00083F83D207B681B685B68FB607B681B683D
:1031D0009B68BB60FB6823F07003FB603B681B6867
:1031E000FA681343FB607B681B68FA685A607B6867
:1031F0001B68144A934209D07B681B68B3F1804F67
:1032000004D07B681B68104A93420CD1BB6823F042
:103210008003BB603B685B68BA681343BB607B6834
:103220001B68BA689A607B68012283F83D207B683E
:10323000002283F83C20002318461437BD4680BC8A
:10324000704700BF002C01400004004080B582B0F0
:1032500000AF78607B68002B01D1012342E07B68DE
:1032600093F84130DBB2002B06D17B68002283F853
:1032700040207868FEF76AF87B68242283F84120B2
:103280007B681B68DA687B681B6822F40052DA608E
:10329000786800F02BF87B681B681A697B681B68EC
:1032A00022F490421A617B681B685A697B681B682C
:1032B00022F02A025A617B681B68DA687B681B6807
:1032C00042F40052DA607B6800225A647B68202254
:1032D00083F841207B68202283F842207B6800220B
:1032E0005A63002318460837BD4680BD80B584B0B8
:1032F00000AF78607B681B681B6923F440517B68D2
:10330000DA687B681B680A431A617B689A687B6885
:103310001B691A437B685B691343BB607B681B684E
:10332000DB6823F4B05323F00C037A681268B968A1
:103330000B43D3607B681B685B6923F440717B6837
:103340009A697B681B680A435A617B681B682C4A30
:10335000934203D1FFF77CF9F86002E0FFF764F9CC
:10336000F860FA6813469B0013449A001A447B687D
:103370005B689B00B2FBF3F3224AA2FB03235B09C9
:103380001901FA6813469B0013449A001A447B689B
:103390005B689B00B2FBF3F21A4BA3FB02035B09D1
:1033A000642000FB03F3D31A1B013233154AA2FB3E
:1033B00003235B0903F0F0031944FA6813469B00EA
:1033C00013449A001A447B685B689B00B2FBF3F2DB
:1033D0000C4BA3FB02035B09642000FB03F3D31A2D
:1033E0001B013233074AA2FB03235B0903F00F02E0
:1033F0007B681B680A449A6000BF1037BD4680BDD9
:10340000003801401F85EB51014B1868704700BF21
:103410000C00002070B500260C4D0D4C641BA41050
:10342000A64209D100F0AAFC00260A4D0A4C641BF2
:10343000A410A64205D170BD55F8043B984701364B
:10344000EEE755F8043B98470136F2E7A43E000842
:10345000A43E0008A43E0008A83E0008034602441B
:10346000934200D1704703F8011BF9E70EB46FF0E7
:10347000004100B59CB01DAB0290069007910491ED
:103480000848094953F8042B0591006802A90193E3
:1034900000F076F80022029B1A701CB05DF804EB75
:1034A00003B070470C0000200802FFFF024610B571
:1034B000147813460132002CFAD1013B11F8012B8C
:1034C00003F8012F002AF9D110BD2DE9F0478E68CD
:1034D00082469E420C4690461F4638D88A8912F48E
:1034E000906F32D0256809690133A5EB0109656940
:1034F0004B4405EB450505EBD5756D109D4238BF76
:103500001D46530531D5294600F06EFB064650B9DD
:103510000C234FF0FF30CAF80030A38943F040037A
:10352000A381BDE8F0874A46216900F0CDFAA3895E
:1035300023F4906343F08003A38126614E44266008
:103540003E466561A5EB0905A560BE4200D93E4631
:1035500032464146206800F0C5FAA36800209B1B54
:10356000A360236833442360DBE72A4600F0B0FB06
:1035700006460028E1D15046216900F0CDFAC7E7A0
:103580002DE9F04F98468B8907461B060D461446D9
:103590009DB00ED50B6963B9402100F025FB286072
:1035A000286120B90C233B604FF0FF30D1E040236D
:1035B0006B610023099320238DF8293030234FF0CD
:1035C0000109CDF80C80DFF8A4818DF82A3023465C
:1035D0009A4613F8012B0AB1252AF9D1BAEB040B4C
:1035E0000BD05B46224629463846FFF76EFF013076
:1035F00000F0AA80099A5A4409929AF80030002BE8
:1036000000F0A28000234FF0FF32CDE905230AF13C
:10361000010A049307938DF853301A9354460522F8
:1036200014F8011B514800F041FA049AD8B9D006A9
:1036300044BF20238DF85330110744BF2B238DF84E
:1036400053309AF800302A2B15D0544600204FF002
:103650000A0C079A214611F8013B303B092B4ED941
:10366000B0B1079214E0A0EB080309FA03F3134387
:10367000A2460493D2E7039B191D1B680391002BFC
:10368000BBBF5B4242F0020207930793B8BF0492AC
:1036900023782E2B0CD163782A2B35D1039B02344F
:1036A0001A1D1B680392002BB8BF4FF0FF33059320
:1036B000DFF8BCA003225046217800F0F7F940B1B2
:1036C0004023A0EB0A0003FA00F0049B01340343FB
:1036D000049314F8011B062226488DF8281000F0E8
:1036E000E5F9002838D0244B1BBB039B073323F09C
:1036F000070308330393099B3344099367E70C4698
:1037000001200CFB0232A5E700234FF00A0C1946FA
:1037100001340593204610F8012B303A092A03D9C9
:10372000002BC5D00591C3E7044601230CFB012102
:10373000F0E703AB00932A463846104B04A9AFF3D9
:103740000080421C0646D6D1AB895B063FF52CAF04
:1037500009981DB0BDE8F08F03AB00932A463846A8
:10376000064B04A900F07CF8EBE700BF6E3E0008B2
:10377000743E0008783E000800000000CB340008CA
:103780002DE9F047164699468A680B690746934229
:10379000B8BF1346336091F843200C46DDF8208013
:1037A0000AB1013333602368990642BF336802339C
:1037B0003360256815F0060506D104F1190AE3689F
:1037C00032689B1AAB4228DC94F84320131E22680F
:1037D00018BF012392062DD44946384604F143020E
:1037E000C047013020D02368E56803F00603042BAE
:1037F00018BF002532684FF00006A36808BFAD1A55
:10380000226908BF25EAE5759342C4BF9B1AED18EB
:103810001A34B5421AD1002008E001235246494625
:103820003846C047013003D14FF0FF30BDE8F08784
:103830000135C4E73020E11881F843005A1C94F8A0
:1038400045102244023382F84310C5E70123224683
:1038500049463846C0470130E6D00136D9E7000076
:103860002DE9FF470F7E9146782F80460C469A46F9
:103870000C9D01F1430207D8622F0AD8002F00F0F7
:10388000D980582F00F0A48004F1420584F84270DA
:103890003AE0A7F16303152BF6D801A151F823F004
:1038A000F93800080D3900088938000889380008FF
:1038B00089380008893800080D390008893800085F
:1038C0008938000889380008893800081B3A000840
:1038D0003D390008FD39000889380008893800089A
:1038E0003D3A0008893800083D3900088938000849
:1038F00089380008053A00082B681A1D1B682A60E1
:1039000004F1420584F842300123A4E020682968CC
:10391000060601F104030AD50E682B60002E03DAB7
:103920002D23764284F843300A235E4819E00E685E
:1039300010F0400F2B6018BF36B2EFE72B682068FD
:10394000191D2960010601D51E6802E04606FBD557
:103950001E886F2F0CBF08230A235248002184F8C9
:1039600043106568002DA8BF2168A560A4BF21F0A1
:10397000040121600EB9002D4DD01546B6FBF3F1C0
:1039800003FB1167C75D05F8017D3746BB420E4654
:10399000F4D9082B0BD12368DE0708D523696168A9
:1039A0009942DEBF302305F8013C05F1FF35521B7B
:1039B00022614B4621464046CDF800A003AAFFF7FE
:1039C000DFFE01304CD14FF0FF3004B0BDE8F0878E
:1039D000344881F845702968236851F8046B2960E0
:1039E0001D0614D5DF0744BF43F0200323601EB932
:1039F000236823F0200323601023AFE7236843F0FC
:103A0000200323607823284884F84530E3E75906EB
:103A100048BFB6B2E6E71546BBE72B682668181D17
:103A20006169286035061B6801D5196002E07006DF
:103A3000FBD51980002315462361BAE72B680021C6
:103A40001A1D2A601D686268284600F02FF808B128
:103A5000401B606063682361002384F84330A8E75B
:103A60002A46494640462369D0470130ABD02368F7
:103A70009B0713D4E068039B9842B8BF1846A4E79D
:103A80000123324649464046D04701309BD001359C
:103A9000E36803995B1AAB42F2DCEBE7002504F123
:103AA0001906F5E77F3E0008903E0008034610B572
:103AB000C9B202449342184601D1002003E00478C1
:103AC00001338C42F6D110BD0A44914200F1FF331C
:103AD00000D1704710B511F8014B914203F8014F26
:103AE000F9D110BD884210B501EB020402D984421D
:103AF000234607D8431EA14208D011F8012B03F832
:103B0000012FF8E7014602448A4200D110BD13F8A4
:103B1000014D02F8014DF7E738B50546002940D0C0
:103B200051F8043C0C1F002BB8BFE41800F010F94A
:103B30001C4A136833B9636014602846BDE83840F6
:103B400000F00CB9A34208D9206821188B4201BFAC
:103B500019685B6809182160EDE71A465B680BB1CC
:103B6000A342FAD911685018A0420BD12068014431
:103B7000501883421160E0D118685B6801441160FD
:103B80005360DAE702D90C232B60D6E720682118AE
:103B90008B4201BF19685B6809182160636054603B
:103BA000CBE738BDA401002070B50E4E0C4631683D
:103BB000054611B900F0BCF830602146284600F0F7
:103BC000B7F8431C0AD0C41C24F00304A04207D059
:103BD000211A284600F0ACF8013001D14FF0FF3433
:103BE000204670BDA80100202DE9F041CD1C25F034
:103BF000030508350C2D38BF0C25002D074601DBC9
:103C0000A94205D90C2300263B603046BDE8F0816F
:103C10002E4E00F09DF833681C4634BB29463846CA
:103C2000FFF7C2FF431C04464DD134682646002EE0
:103C300040D123683146384604EB030800F078F899
:103C400080453AD1216803356D1A25F00305083502
:103C50000C2D38BF0C2538462946FFF7A5FF01304B
:103C60002BD023682B4423600EE02268521B1ED405
:103C70000B2A16D96119A342256018BF59606368E1
:103C800008BF316062514B60384604F10B0600F00A
:103C900065F826F00706231DF21AB6D09B1BA35029
:103CA000B3E76268A3420CBF32605A60ECE7234678
:103CB0006468B2E734467668B9E70C2338463B605F
:103CC00000F04CF8A1E72560DEE700BFA40100206A
:103CD0002DE9F041804614460E4621B91146BDE853
:103CE000F041FFF781BF2AB9FFF716FF25462846A6
:103CF000BDE8F08100F038F88442074602D8B4EB02
:103D0000500F12D821464046FFF76EFF05460028A7
:103D1000EDD0BC422246314628BF3A46FFF7D4FEDA
:103D200031464046FFF7F8FEE1E73546DFE70000A1
:103D300038B50023054D044608462B60FDF794FB7B
:103D4000431C02D12B6803B1236038BDAC010020B5
:103D5000014800F011B800BFB0010020014800F098
:103D60000CB800BFB001002051F8043C181F002B14
:103D7000BCBF0B58C018704770477047F8B500BFFC
:103D8000F8BC08BC9E467047F8B500BFF8BC08BC3C
:043D90009E46704794
:103D94003738392F3435362A3132332D6F303D2BB5
:103DA400313233340000000020456E7465722050B7
:103DB400617373776F726400202A000020436F726E
:103DC40072656374210000002057726F6E672100D2
:103DD400256400002033206661696C656420617489
:103DE40074656D707473000020456E746572204EA6
:103DF40065772050617373776F72643A0000000036
:103E0400206E65772070617373776F7264207365B9
:103E14007421000020556E6C6F636B696E672064BB
:103E24006F6F722E2E2E00002044657361637469D7
:103E3400766174696E672042757A7A657200000053
:103E44000000000000000000010203040607080946
:103E54000000000001020304020304050607080928
:103E64000A0B0C0D0E0F10100102232D302B200015
:103E7400686C4C0065666745464700303132333420
:103E840035363738394142434445460030313233C0
:103E94003435363738396162636465660000000082
:043EA40035010008DC
:043EA80011010008FC
:103EAC0000127A0010000000010000001000002039
:103EBC0000000000000000000000000000000000F6
:103ECC0000000000000000000000000000000000E6
:103EDC0000000000000000000000000000000000D6
:103EEC0000000000000000000000000000000000C6
:103EFC0000000000000000000000000000000000B6
:103F0C0000000000000000000000000000000000A5
:04000005080014E1FA
:00000001FF
